{
  "contractName": "AppointmentContract",
  "abi": [
    {
      "inputs": [
        {
          "internalType": "uint256",
          "name": "",
          "type": "uint256"
        }
      ],
      "name": "appointments",
      "outputs": [
        {
          "internalType": "uint256",
          "name": "id",
          "type": "uint256"
        },
        {
          "internalType": "string",
          "name": "doctor",
          "type": "string"
        },
        {
          "internalType": "string",
          "name": "time",
          "type": "string"
        }
      ],
      "stateMutability": "view",
      "type": "function",
      "constant": true
    },
    {
      "inputs": [
        {
          "internalType": "string",
          "name": "_doctor",
          "type": "string"
        },
        {
          "internalType": "string",
          "name": "_time",
          "type": "string"
        }
      ],
      "name": "addAppointment",
      "outputs": [],
      "stateMutability": "nonpayable",
      "type": "function"
    },
    {
      "inputs": [],
      "name": "getAppointments",
      "outputs": [
        {
          "components": [
            {
              "internalType": "uint256",
              "name": "id",
              "type": "uint256"
            },
            {
              "internalType": "string",
              "name": "doctor",
              "type": "string"
            },
            {
              "internalType": "string",
              "name": "time",
              "type": "string"
            }
          ],
          "internalType": "struct AppointmentContract.Appointment[]",
          "name": "",
          "type": "tuple[]"
        }
      ],
      "stateMutability": "view",
      "type": "function",
      "constant": true
    }
  ],
  "bytecode": "0x608060405234801561001057600080fd5b50610c3b806100206000396000f3fe608060405234801561001057600080fd5b50600436106100415760003560e01c806312dc90131461004657806381ba5fdd1461007857806396b80d0814610094575b600080fd5b610060600480360381019061005b9190610472565b6100b2565b60405161006f9392919061053e565b60405180910390f35b610092600480360381019061008d91906106b8565b6101fc565b005b61009c61029b565b6040516100a991906108a2565b60405180910390f35b600081815481106100c257600080fd5b90600052602060002090600302016000915090508060000154908060010180546100eb906108f3565b80601f0160208091040260200160405190810160405280929190818152602001828054610117906108f3565b80156101645780601f1061013957610100808354040283529160200191610164565b820191906000526020600020905b81548152906001019060200180831161014757829003601f168201915b505050505090806002018054610179906108f3565b80601f01602080910402602001604051908101604052809291908181526020018280546101a5906108f3565b80156101f25780601f106101c7576101008083540402835291602001916101f2565b820191906000526020600020905b8154815290600101906020018083116101d557829003601f168201915b5050505050905083565b600060016000805490506102109190610953565b905060006040518060600160405280838152602001858152602001848152509050600081908060018154018082558091505060019003906000526020600020906003020160009091909190915060008201518160000155602082015181600101908161027c9190610b33565b5060408201518160020190816102929190610b33565b50505050505050565b60606000805480602002602001604051908101604052809291908181526020016000905b8282101561041f5783829060005260206000209060030201604051806060016040529081600082015481526020016001820180546102fc906108f3565b80601f0160208091040260200160405190810160405280929190818152602001828054610328906108f3565b80156103755780601f1061034a57610100808354040283529160200191610375565b820191906000526020600020905b81548152906001019060200180831161035857829003601f168201915b5050505050815260200160028201805461038e906108f3565b80601f01602080910402602001604051908101604052809291908181526020018280546103ba906108f3565b80156104075780601f106103dc57610100808354040283529160200191610407565b820191906000526020600020905b8154815290600101906020018083116103ea57829003601f168201915b505050505081525050815260200190600101906102bf565b50505050905090565b6000604051905090565b600080fd5b600080fd5b6000819050919050565b61044f8161043c565b811461045a57600080fd5b50565b60008135905061046c81610446565b92915050565b60006020828403121561048857610487610432565b5b60006104968482850161045d565b91505092915050565b6104a88161043c565b82525050565b600081519050919050565b600082825260208201905092915050565b60005b838110156104e85780820151818401526020810190506104cd565b60008484015250505050565b6000601f19601f8301169050919050565b6000610510826104ae565b61051a81856104b9565b935061052a8185602086016104ca565b610533816104f4565b840191505092915050565b6000606082019050610553600083018661049f565b81810360208301526105658185610505565b905081810360408301526105798184610505565b9050949350505050565b600080fd5b600080fd5b7f4e487b7100000000000000000000000000000000000000000000000000000000600052604160045260246000fd5b6105c5826104f4565b810181811067ffffffffffffffff821117156105e4576105e361058d565b5b80604052505050565b60006105f7610428565b905061060382826105bc565b919050565b600067ffffffffffffffff8211156106235761062261058d565b5b61062c826104f4565b9050602081019050919050565b82818337600083830152505050565b600061065b61065684610608565b6105ed565b90508281526020810184848401111561067757610676610588565b5b610682848285610639565b509392505050565b600082601f83011261069f5761069e610583565b5b81356106af848260208601610648565b91505092915050565b600080604083850312156106cf576106ce610432565b5b600083013567ffffffffffffffff8111156106ed576106ec610437565b5b6106f98582860161068a565b925050602083013567ffffffffffffffff81111561071a57610719610437565b5b6107268582860161068a565b9150509250929050565b600081519050919050565b600082825260208201905092915050565b6000819050602082019050919050565b6107658161043c565b82525050565b600082825260208201905092915050565b6000610787826104ae565b610791818561076b565b93506107a18185602086016104ca565b6107aa816104f4565b840191505092915050565b60006060830160008301516107cd600086018261075c565b50602083015184820360208601526107e5828261077c565b915050604083015184820360408601526107ff828261077c565b9150508091505092915050565b600061081883836107b5565b905092915050565b6000602082019050919050565b600061083882610730565b610842818561073b565b9350836020820285016108548561074c565b8060005b858110156108905784840389528151610871858261080c565b945061087c83610820565b925060208a01995050600181019050610858565b50829750879550505050505092915050565b600060208201905081810360008301526108bc818461082d565b905092915050565b7f4e487b7100000000000000000000000000000000000000000000000000000000600052602260045260246000fd5b6000600282049050600182168061090b57607f821691505b60208210810361091e5761091d6108c4565b5b50919050565b7f4e487b7100000000000000000000000000000000000000000000000000000000600052601160045260246000fd5b600061095e8261043c565b91506109698361043c565b925082820190508082111561098157610980610924565b5b92915050565b60008190508160005260206000209050919050565b60006020601f8301049050919050565b600082821b905092915050565b6000600883026109e97fffffffffffffffffffffffffffffffffffffffffffffffffffffffffffffffff826109ac565b6109f386836109ac565b95508019841693508086168417925050509392505050565b6000819050919050565b6000610a30610a2b610a268461043c565b610a0b565b61043c565b9050919050565b6000819050919050565b610a4a83610a15565b610a5e610a5682610a37565b8484546109b9565b825550505050565b600090565b610a73610a66565b610a7e818484610a41565b505050565b5b81811015610aa257610a97600082610a6b565b600181019050610a84565b5050565b601f821115610ae757610ab881610987565b610ac18461099c565b81016020851015610ad0578190505b610ae4610adc8561099c565b830182610a83565b50505b505050565b600082821c905092915050565b6000610b0a60001984600802610aec565b1980831691505092915050565b6000610b238383610af9565b9150826002028217905092915050565b610b3c826104ae565b67ffffffffffffffff811115610b5557610b5461058d565b5b610b5f82546108f3565b610b6a828285610aa6565b600060209050601f831160018114610b9d5760008415610b8b578287015190505b610b958582610b17565b865550610bfd565b601f198416610bab86610987565b60005b82811015610bd357848901518255600182019150602085019450602081019050610bae565b86831015610bf05784890151610bec601f891682610af9565b8355505b6001600288020188555050505b50505050505056fea2646970667358221220f33e6d2b66333deb29080daa2f27e59c58927ac31e309d7a2daa528a954b1cc364736f6c63430008130033",
  "immutableReferences": {},
  "source": "// SPDX-License-Identifier: MIT\r\npragma solidity >=0.4.22 <0.9.0;\r\npragma experimental ABIEncoderV2;\r\n\r\ncontract AppointmentContract {\r\n    struct Appointment {\r\n        uint256 id;\r\n        string doctor;\r\n        string time;\r\n    }\r\n\r\n    Appointment[] public appointments;\r\n\r\n    function addAppointment(string memory _doctor, string memory  _time) external {\r\n        uint256 appointmentId = appointments.length + 1;\r\n        Appointment memory newAppointment = Appointment(appointmentId, _doctor, _time);\r\n        appointments.push(newAppointment);\r\n    }\r\n\r\n    function getAppointments() external view returns (Appointment[] memory) {\r\n        return appointments;\r\n    }\r\n}\r\n",
  "sourcePath": "C:\\Users\\masanula\\Desktop\\ehr\\src\\truffle\\contracts\\AppointmentContract.sol",
  "compiler": {
    "name": "solc",
    "version": "0.8.19+commit.7dd6d404.Emscripten.clang"
  },
  "schemaVersion": "3.4.14",
  "updatedAt": "2023-07-12T09:55:26.379Z",
  "networkType": "ethereum",
  "devdoc": {
    "kind": "dev",
    "methods": {},
    "version": 1
  },
  "userdoc": {
    "kind": "user",
    "methods": {},
    "version": 1
  }
}