{
  "contractName": "PatientRegistrationContract",
  "abi": [
    {
      "inputs": [
        {
          "internalType": "string",
          "name": "_firstName",
          "type": "string"
        },
        {
          "internalType": "string",
          "name": "_middleName",
          "type": "string"
        },
        {
          "internalType": "string",
          "name": "_lastName",
          "type": "string"
        },
        {
          "internalType": "string",
          "name": "_dob",
          "type": "string"
        },
        {
          "internalType": "string",
          "name": "_gender",
          "type": "string"
        },
        {
          "internalType": "string",
          "name": "_nationality",
          "type": "string"
        },
        {
          "internalType": "string",
          "name": "_education",
          "type": "string"
        },
        {
          "internalType": "string",
          "name": "_tribe",
          "type": "string"
        },
        {
          "internalType": "string",
          "name": "_maritalStatus",
          "type": "string"
        },
        {
          "internalType": "string",
          "name": "_region",
          "type": "string"
        },
        {
          "internalType": "string",
          "name": "_residence",
          "type": "string"
        }
      ],
      "name": "registerPatient",
      "outputs": [],
      "stateMutability": "nonpayable",
      "type": "function"
    },
    {
      "inputs": [],
      "name": "getPatient",
      "outputs": [
        {
          "components": [
            {
              "internalType": "string",
              "name": "firstName",
              "type": "string"
            },
            {
              "internalType": "string",
              "name": "middleName",
              "type": "string"
            },
            {
              "internalType": "string",
              "name": "lastName",
              "type": "string"
            },
            {
              "internalType": "string",
              "name": "dob",
              "type": "string"
            },
            {
              "internalType": "string",
              "name": "gender",
              "type": "string"
            },
            {
              "internalType": "string",
              "name": "nationality",
              "type": "string"
            },
            {
              "internalType": "string",
              "name": "education",
              "type": "string"
            },
            {
              "internalType": "string",
              "name": "tribe",
              "type": "string"
            },
            {
              "internalType": "string",
              "name": "maritalStatus",
              "type": "string"
            },
            {
              "internalType": "string",
              "name": "region",
              "type": "string"
            },
            {
              "internalType": "string",
              "name": "residence",
              "type": "string"
            }
          ],
          "internalType": "struct PatientRegistrationContract.Patient",
          "name": "",
          "type": "tuple"
        }
      ],
      "stateMutability": "view",
      "type": "function",
      "constant": true
    }
  ],
  "bytecode": "0x608060405234801561001057600080fd5b50611177806100206000396000f3fe608060405234801561001057600080fd5b50600436106100365760003560e01c80637b0f9a361461003b578063e9d2f85714610059575b600080fd5b610043610075565b6040516100509190610ac6565b60405180910390f35b610073600480360381019061006e9190610c31565b610712565b005b61007d6108a7565b6000803373ffffffffffffffffffffffffffffffffffffffff1673ffffffffffffffffffffffffffffffffffffffff168152602001908152602001600020604051806101600160405290816000820180546100d790610e88565b80601f016020809104026020016040519081016040528092919081815260200182805461010390610e88565b80156101505780601f1061012557610100808354040283529160200191610150565b820191906000526020600020905b81548152906001019060200180831161013357829003601f168201915b5050505050815260200160018201805461016990610e88565b80601f016020809104026020016040519081016040528092919081815260200182805461019590610e88565b80156101e25780601f106101b7576101008083540402835291602001916101e2565b820191906000526020600020905b8154815290600101906020018083116101c557829003601f168201915b505050505081526020016002820180546101fb90610e88565b80601f016020809104026020016040519081016040528092919081815260200182805461022790610e88565b80156102745780601f1061024957610100808354040283529160200191610274565b820191906000526020600020905b81548152906001019060200180831161025757829003601f168201915b5050505050815260200160038201805461028d90610e88565b80601f01602080910402602001604051908101604052809291908181526020018280546102b990610e88565b80156103065780601f106102db57610100808354040283529160200191610306565b820191906000526020600020905b8154815290600101906020018083116102e957829003601f168201915b5050505050815260200160048201805461031f90610e88565b80601f016020809104026020016040519081016040528092919081815260200182805461034b90610e88565b80156103985780601f1061036d57610100808354040283529160200191610398565b820191906000526020600020905b81548152906001019060200180831161037b57829003601f168201915b505050505081526020016005820180546103b190610e88565b80601f01602080910402602001604051908101604052809291908181526020018280546103dd90610e88565b801561042a5780601f106103ff5761010080835404028352916020019161042a565b820191906000526020600020905b81548152906001019060200180831161040d57829003601f168201915b5050505050815260200160068201805461044390610e88565b80601f016020809104026020016040519081016040528092919081815260200182805461046f90610e88565b80156104bc5780601f10610491576101008083540402835291602001916104bc565b820191906000526020600020905b81548152906001019060200180831161049f57829003601f168201915b505050505081526020016007820180546104d590610e88565b80601f016020809104026020016040519081016040528092919081815260200182805461050190610e88565b801561054e5780601f106105235761010080835404028352916020019161054e565b820191906000526020600020905b81548152906001019060200180831161053157829003601f168201915b5050505050815260200160088201805461056790610e88565b80601f016020809104026020016040519081016040528092919081815260200182805461059390610e88565b80156105e05780601f106105b5576101008083540402835291602001916105e0565b820191906000526020600020905b8154815290600101906020018083116105c357829003601f168201915b505050505081526020016009820180546105f990610e88565b80601f016020809104026020016040519081016040528092919081815260200182805461062590610e88565b80156106725780601f1061064757610100808354040283529160200191610672565b820191906000526020600020905b81548152906001019060200180831161065557829003601f168201915b50505050508152602001600a8201805461068b90610e88565b80601f01602080910402602001604051908101604052809291908181526020018280546106b790610e88565b80156107045780601f106106d957610100808354040283529160200191610704565b820191906000526020600020905b8154815290600101906020018083116106e757829003601f168201915b505050505081525050905090565b60006040518061016001604052808d81526020018c81526020018b81526020018a8152602001898152602001888152602001878152602001868152602001858152602001848152602001838152509050806000803373ffffffffffffffffffffffffffffffffffffffff1673ffffffffffffffffffffffffffffffffffffffff16815260200190815260200160002060008201518160000190816107b6919061106f565b5060208201518160010190816107cc919061106f565b5060408201518160020190816107e2919061106f565b5060608201518160030190816107f8919061106f565b50608082015181600401908161080e919061106f565b5060a0820151816005019081610824919061106f565b5060c082015181600601908161083a919061106f565b5060e0820151816007019081610850919061106f565b50610100820151816008019081610867919061106f565b5061012082015181600901908161087e919061106f565b5061014082015181600a019081610895919061106f565b50905050505050505050505050505050565b60405180610160016040528060608152602001606081526020016060815260200160608152602001606081526020016060815260200160608152602001606081526020016060815260200160608152602001606081525090565b600081519050919050565b600082825260208201905092915050565b60005b8381101561093b578082015181840152602081019050610920565b60008484015250505050565b6000601f19601f8301169050919050565b600061096382610901565b61096d818561090c565b935061097d81856020860161091d565b61098681610947565b840191505092915050565b60006101608301600083015184820360008601526109af8282610958565b915050602083015184820360208601526109c98282610958565b915050604083015184820360408601526109e38282610958565b915050606083015184820360608601526109fd8282610958565b91505060808301518482036080860152610a178282610958565b91505060a083015184820360a0860152610a318282610958565b91505060c083015184820360c0860152610a4b8282610958565b91505060e083015184820360e0860152610a658282610958565b915050610100830151848203610100860152610a818282610958565b915050610120830151848203610120860152610a9d8282610958565b915050610140830151848203610140860152610ab98282610958565b9150508091505092915050565b60006020820190508181036000830152610ae08184610991565b905092915050565b6000604051905090565b600080fd5b600080fd5b600080fd5b600080fd5b7f4e487b7100000000000000000000000000000000000000000000000000000000600052604160045260246000fd5b610b3e82610947565b810181811067ffffffffffffffff82111715610b5d57610b5c610b06565b5b80604052505050565b6000610b70610ae8565b9050610b7c8282610b35565b919050565b600067ffffffffffffffff821115610b9c57610b9b610b06565b5b610ba582610947565b9050602081019050919050565b82818337600083830152505050565b6000610bd4610bcf84610b81565b610b66565b905082815260208101848484011115610bf057610bef610b01565b5b610bfb848285610bb2565b509392505050565b600082601f830112610c1857610c17610afc565b5b8135610c28848260208601610bc1565b91505092915050565b60008060008060008060008060008060006101608c8e031215610c5757610c56610af2565b5b60008c013567ffffffffffffffff811115610c7557610c74610af7565b5b610c818e828f01610c03565b9b505060208c013567ffffffffffffffff811115610ca257610ca1610af7565b5b610cae8e828f01610c03565b9a505060408c013567ffffffffffffffff811115610ccf57610cce610af7565b5b610cdb8e828f01610c03565b99505060608c013567ffffffffffffffff811115610cfc57610cfb610af7565b5b610d088e828f01610c03565b98505060808c013567ffffffffffffffff811115610d2957610d28610af7565b5b610d358e828f01610c03565b97505060a08c013567ffffffffffffffff811115610d5657610d55610af7565b5b610d628e828f01610c03565b96505060c08c013567ffffffffffffffff811115610d8357610d82610af7565b5b610d8f8e828f01610c03565b95505060e08c013567ffffffffffffffff811115610db057610daf610af7565b5b610dbc8e828f01610c03565b9450506101008c013567ffffffffffffffff811115610dde57610ddd610af7565b5b610dea8e828f01610c03565b9350506101208c013567ffffffffffffffff811115610e0c57610e0b610af7565b5b610e188e828f01610c03565b9250506101408c013567ffffffffffffffff811115610e3a57610e39610af7565b5b610e468e828f01610c03565b9150509295989b509295989b9093969950565b7f4e487b7100000000000000000000000000000000000000000000000000000000600052602260045260246000fd5b60006002820490506001821680610ea057607f821691505b602082108103610eb357610eb2610e59565b5b50919050565b60008190508160005260206000209050919050565b60006020601f8301049050919050565b600082821b905092915050565b600060088302610f1b7fffffffffffffffffffffffffffffffffffffffffffffffffffffffffffffffff82610ede565b610f258683610ede565b95508019841693508086168417925050509392505050565b6000819050919050565b6000819050919050565b6000610f6c610f67610f6284610f3d565b610f47565b610f3d565b9050919050565b6000819050919050565b610f8683610f51565b610f9a610f9282610f73565b848454610eeb565b825550505050565b600090565b610faf610fa2565b610fba818484610f7d565b505050565b5b81811015610fde57610fd3600082610fa7565b600181019050610fc0565b5050565b601f82111561102357610ff481610eb9565b610ffd84610ece565b8101602085101561100c578190505b61102061101885610ece565b830182610fbf565b50505b505050565b600082821c905092915050565b600061104660001984600802611028565b1980831691505092915050565b600061105f8383611035565b9150826002028217905092915050565b61107882610901565b67ffffffffffffffff81111561109157611090610b06565b5b61109b8254610e88565b6110a6828285610fe2565b600060209050601f8311600181146110d957600084156110c7578287015190505b6110d18582611053565b865550611139565b601f1984166110e786610eb9565b60005b8281101561110f578489015182556001820191506020850194506020810190506110ea565b8683101561112c5784890151611128601f891682611035565b8355505b6001600288020188555050505b50505050505056fea2646970667358221220be69762fc05aaaf3647bcbd90b7090862bede72e55651de6101c7628a23c14f364736f6c63430008130033",
  "immutableReferences": {},
  "source": "// SPDX-License-Identifier: MIT\r\npragma solidity >=0.4.22 <0.9.0;\r\npragma experimental ABIEncoderV2;\r\n\r\ncontract PatientRegistrationContract {\r\n    struct Patient {\r\n        string firstName;\r\n        string middleName;\r\n        string lastName;\r\n        string dob;\r\n        string gender;\r\n        string nationality;\r\n        string education;\r\n        string tribe;\r\n        string maritalStatus;\r\n        string region;\r\n        string residence;\r\n    }\r\n\r\n    mapping(address => Patient) private patients;\r\n\r\n    function registerPatient(\r\n        string memory _firstName,\r\n        string memory _middleName,\r\n        string memory _lastName,\r\n        string memory _dob,\r\n        string memory _gender,\r\n        string memory _nationality,\r\n        string memory _education,\r\n        string memory _tribe,\r\n        string memory _maritalStatus,\r\n        string memory _region,\r\n        string memory _residence\r\n    ) public {\r\n        Patient memory newPatient = Patient(\r\n            _firstName,\r\n            _middleName,\r\n            _lastName,\r\n            _dob,\r\n            _gender,\r\n            _nationality,\r\n            _education,\r\n            _tribe,\r\n            _maritalStatus,\r\n            _region,\r\n            _residence\r\n        );\r\n\r\n        patients[msg.sender] = newPatient;\r\n    }\r\n\r\n    function getPatient() public view returns (Patient memory) {\r\n        return patients[msg.sender];\r\n    }\r\n}\r\n",
  "sourcePath": "C:\\Users\\masanula\\Desktop\\ehr\\src\\truffle\\contracts\\PatientRegistrationContract.sol",
  "compiler": {
    "name": "solc",
    "version": "0.8.19+commit.7dd6d404.Emscripten.clang"
  },
  "schemaVersion": "3.4.14",
  "updatedAt": "2023-07-12T09:55:26.814Z",
  "networkType": "ethereum",
  "devdoc": {
    "kind": "dev",
    "methods": {},
    "version": 1
  },
  "userdoc": {
    "kind": "user",
    "methods": {},
    "version": 1
  }
}