{
  "contractName": "UserManagementContract",
  "abi": [
    {
      "anonymous": false,
      "inputs": [
        {
          "indexed": true,
          "internalType": "address",
          "name": "_address",
          "type": "address"
        },
        {
          "indexed": false,
          "internalType": "bytes32",
          "name": "_name",
          "type": "bytes32"
        },
        {
          "indexed": false,
          "internalType": "uint256",
          "name": "_created_at",
          "type": "uint256"
        }
      ],
      "name": "UserCreated",
      "type": "event"
    },
    {
      "anonymous": false,
      "inputs": [
        {
          "indexed": true,
          "internalType": "address",
          "name": "_address",
          "type": "address"
        }
      ],
      "name": "UserDeleted",
      "type": "event"
    },
    {
      "anonymous": false,
      "inputs": [
        {
          "indexed": true,
          "internalType": "address",
          "name": "_address",
          "type": "address"
        },
        {
          "indexed": false,
          "internalType": "bytes32",
          "name": "_name",
          "type": "bytes32"
        }
      ],
      "name": "UserUpdated",
      "type": "event"
    },
    {
      "inputs": [],
      "name": "destroy",
      "outputs": [],
      "stateMutability": "nonpayable",
      "type": "function"
    },
    {
      "inputs": [],
      "name": "login",
      "outputs": [
        {
          "internalType": "bytes32",
          "name": "",
          "type": "bytes32"
        }
      ],
      "stateMutability": "view",
      "type": "function",
      "constant": true
    },
    {
      "inputs": [
        {
          "internalType": "bytes32",
          "name": "name",
          "type": "bytes32"
        }
      ],
      "name": "signup",
      "outputs": [
        {
          "internalType": "bytes32",
          "name": "",
          "type": "bytes32"
        }
      ],
      "stateMutability": "payable",
      "type": "function",
      "payable": true
    }
  ],
  "bytecode": "0x608060405234801561001057600080fd5b5061067d806100206000396000f3fe6080604052600436106100345760003560e01c80635c1397de1461003957806383197ef014610069578063b34e97e814610080575b600080fd5b610053600480360381019061004e9190610459565b6100ab565b6040516100609190610495565b60405180910390f35b34801561007557600080fd5b5061007e610238565b005b34801561008c57600080fd5b50610095610352565b6040516100a29190610495565b60405180910390f35b600081600081036100f1576040517f08c379a00000000000000000000000000000000000000000000000000000000081526004016100e89061050d565b60405180910390fd5b60008060003373ffffffffffffffffffffffffffffffffffffffff1673ffffffffffffffffffffffffffffffffffffffff1681526020019081526020016000206001015414610175576040517f08c379a000000000000000000000000000000000000000000000000000000000815260040161016c90610579565b60405180910390fd5b6040518060400160405280848152602001428152506000803373ffffffffffffffffffffffffffffffffffffffff1673ffffffffffffffffffffffffffffffffffffffff16815260200190815260200160002060008201518160000155602082015181600101559050503373ffffffffffffffffffffffffffffffffffffffff167f75a78c3506795933e208740942b53541acf3eb85d5ca731a904e358b120d611684426040516102279291906105b2565b60405180910390a282915050919050565b60008060003373ffffffffffffffffffffffffffffffffffffffff1673ffffffffffffffffffffffffffffffffffffffff16815260200190815260200160002060010154116102bc576040517f08c379a00000000000000000000000000000000000000000000000000000000081526004016102b390610627565b60405180910390fd5b6000803373ffffffffffffffffffffffffffffffffffffffff1673ffffffffffffffffffffffffffffffffffffffff168152602001908152602001600020600080820160009055600182016000905550503373ffffffffffffffffffffffffffffffffffffffff167f4bc56f1321288dfb5b416cb3a7fd188723979f9e866c91d88eccf7fca039d03960405160405180910390a2565b6000806000803373ffffffffffffffffffffffffffffffffffffffff1673ffffffffffffffffffffffffffffffffffffffff16815260200190815260200160002060010154116103d7576040517f08c379a00000000000000000000000000000000000000000000000000000000081526004016103ce90610627565b60405180910390fd5b6000803373ffffffffffffffffffffffffffffffffffffffff1673ffffffffffffffffffffffffffffffffffffffff16815260200190815260200160002060000154905090565b600080fd5b6000819050919050565b61043681610423565b811461044157600080fd5b50565b6000813590506104538161042d565b92915050565b60006020828403121561046f5761046e61041e565b5b600061047d84828501610444565b91505092915050565b61048f81610423565b82525050565b60006020820190506104aa6000830184610486565b92915050565b600082825260208201905092915050565b7f496e76616c6964206e616d650000000000000000000000000000000000000000600082015250565b60006104f7600c836104b0565b9150610502826104c1565b602082019050919050565b60006020820190508181036000830152610526816104ea565b9050919050565b7f5573657220616c72656164792065786973747300000000000000000000000000600082015250565b60006105636013836104b0565b915061056e8261052d565b602082019050919050565b6000602082019050818103600083015261059281610556565b9050919050565b6000819050919050565b6105ac81610599565b82525050565b60006040820190506105c76000830185610486565b6105d460208301846105a3565b9392505050565b7f5573657220646f6573206e6f7420657869737400000000000000000000000000600082015250565b60006106116013836104b0565b915061061c826105db565b602082019050919050565b6000602082019050818103600083015261064081610604565b905091905056fea26469706673582212202b26f1629aa6fe6e7f225b10d66eb9eeb3ebfe2855c826fbb178a40bae5f85dd64736f6c63430008130033",
  "immutableReferences": {},
  "source": "// SPDX-License-Identifier: MIT\r\npragma solidity >=0.4.22 <0.9.0;\r\npragma experimental ABIEncoderV2;\r\n\r\ncontract UserManagementContract {\r\n    struct User {\r\n        bytes32 name;\r\n        uint256 createdAt;\r\n    }\r\n\r\n    mapping(address => User) private users;\r\n\r\n    event UserCreated(address indexed _address, bytes32 _name, uint256 _created_at);\r\n    event UserDeleted(address indexed _address);\r\n    event UserUpdated(address indexed _address, bytes32 _name);\r\n\r\n    modifier onlyExistingUser() {\r\n        require(users[msg.sender].createdAt > 0, \"User does not exist\");\r\n        _;\r\n    }\r\n\r\n    modifier onlyValidName(bytes32 name) {\r\n        require(name != \"\", \"Invalid name\");\r\n        _;\r\n    }\r\n\r\n    function destroy() public onlyExistingUser {\r\n        delete users[msg.sender];\r\n        emit UserDeleted(msg.sender);\r\n    }\r\n\r\n    function login() public view onlyExistingUser returns (bytes32) {\r\n        return users[msg.sender].name;\r\n    }\r\n\r\n    function signup(bytes32 name) public payable onlyValidName(name) returns (bytes32) {\r\n        require(users[msg.sender].createdAt == 0, \"User already exists\");\r\n        \r\n        users[msg.sender] = User({\r\n            name: name,\r\n            createdAt: block.timestamp\r\n        });\r\n        \r\n        emit UserCreated(msg.sender, name, block.timestamp);\r\n        \r\n        return name;\r\n    }\r\n}\r\n",
  "sourcePath": "C:\\Users\\masanula\\Desktop\\ehr\\src\\truffle\\contracts\\UserManagementContract.sol",
  "compiler": {
    "name": "solc",
    "version": "0.8.19+commit.7dd6d404.Emscripten.clang"
  },
  "schemaVersion": "3.4.14",
  "updatedAt": "2023-07-12T09:55:27.252Z",
  "networkType": "ethereum",
  "devdoc": {
    "kind": "dev",
    "methods": {},
    "version": 1
  },
  "userdoc": {
    "kind": "user",
    "methods": {},
    "version": 1
  }
}